:020000040800F2
:1000000000C0002091100008C90F0008CB0F0008A5
:10001000CD0F0008CF0F0008D10F0008000000002E
:100020000000000000000000000000004133000854
:10003000D30F000800000000D13300081534000879
:10004000D9100008D9100008D9100008D9100008EC
:10005000D9100008D9100008D9100008D9100008DC
:10006000D9100008D9100008D9100008D9100008CC
:10007000D9100008D9100008D9100008D9100008BC
:10008000D9100008D9100008D9100008D9100008AC
:10009000D9100008D9100008D9100008D91000089C
:1000A000D9100008D50F0008D9100008D910000891
:1000B000D9100008D9100008D9100008D91000087C
:1000C000D9100008D9100008D9100008D91000086C
:1000D000D9100008D9100008D9100008D91000085C
:1000E000D9100008D9100008D9100008D91000084C
:1000F000D9100008D9100008D9100008D91000083C
:10010000D9100008D9100008D9100008D91000082B
:10011000D9100008D9100008D9100008D91000081B
:10012000D9100008D9100008D9100008D91000080B
:1001300000000000000000000000000000000000BF
:1001400000000000000000000000000000000000AF
:10015000000000000000000000000000000000009F
:10016000000000000000000000000000000000008F
:10017000000000000000000000000000000000007F
:10018000000000000000000000000000000000006F
:10019000000000000000000000000000000000005F
:1001A000000000000000000000000000000000004F
:1001B000000000000000000000000000000000003F
:1001C000000000000000000000000000000000002F
:1001D000000000000000000000000000000000001F
:0401E0005FF8E0F1F3
:1001F00010B5054C237833B9044B13B10448AFF361
:1002000000800123237010BDE401002000000000E5
:10021000A880000808B5034B1BB103490348AFF39E
:10022000008008BD00000000E8010020A880000850
:10023000034613F8012B002AFBD1181A0138704726
:1002400081F0004102E000BF83F0004330B54FEA87
:1002500041044FEA430594EA050F08BF90EA020FF4
:100260001FBF54EA000C55EA020C7FEA645C7FEA87
:10027000655C00F0E2804FEA5454D4EB5555B8BFAA
:100280006D420CDD2C4480EA020281EA030382EA1B
:10029000000083EA010180EA020281EA0303362DAD
:1002A00088BF30BD11F0004F4FEA01314FF4801C80
:1002B0004CEA113102D0404261EB410113F0004F92
:1002C0004FEA03334CEA133302D0524263EB430349
:1002D00094EA050F00F0A780A4F10104D5F1200EE7
:1002E0000DDB02FA0EFC22FA05F2801841F1000142
:1002F00003FA0EF2801843FA05F359410EE0A5F116
:1003000020050EF1200E012A03FA0EFC28BF4CF046
:10031000020C43FA05F3C01851EBE37101F00045FC
:1003200007D54FF0000EDCF1000C7EEB00006EEB09
:100330000101B1F5801F1BD3B1F5001F0CD3490893
:100340005FEA30004FEA3C0C04F101044FEA4452EA
:1003500012F5800F80F09A80BCF1004F08BF5FEA71
:10036000500C50F1000041EB045141EA050130BD51
:100370005FEA4C0C404141EB0101013C28BFB1F563
:10038000801FE9D291F0000F04BF01460020B1FAAE
:1003900081F308BF2033A3F10B03B3F120020CDA81
:1003A0000C3208DD02F1140CC2F10C0201FA0CF05F
:1003B00021FA02F10CE002F11402D8BFC2F1200CC4
:1003C00001FA02F120FA0CFCDCBF41EA0C0190407A
:1003D000E41AA2BF01EB0451294330BD6FEA0404C3
:1003E0001F3C1CDA0C340EDC04F11404C4F12002AE
:1003F00020FA04F001FA02F340EA030021FA04F3C0
:1004000045EA030130BDC4F10C04C4F1200220FA16
:1004100002F001FA04F340EA0300294630BD21FA54
:1004200004F0294630BD94F0000F83F4801306BF1A
:1004300081F480110134013D4EE77FEA645C18BF0E
:100440007FEA655C29D094EA050F08BF90EA020FA5
:1004500005D054EA000C04BF1946104630BD91EA9D
:10046000030F1EBF0021002030BD5FEA545C05D1A0
:100470004000494128BF41F0004130BD14F58004DF
:100480003CBF01F5801130BD01F0004545F0FE4153
:1004900041F470014FF0000030BD7FEA645C1ABF88
:1004A000194610467FEA655C1CBF0B46024650EABF
:1004B000013406BF52EA033591EA030F41F40021EB
:1004C00030BD00BF90F0000F04BF0021704730B571
:1004D0004FF4806404F132044FF000054FF0000146
:1004E00050E700BF90F0000F04BF0021704730B507
:1004F0004FF4806404F1320410F0004548BF4042DC
:100500004FF000013EE700BF42004FEAE2014FEA30
:1005100031014FEA02701FBF12F07F4393F07F4F0B
:1005200081F06051704732F07F4208BF704793F00E
:100530007F4F04BF41F40021704730B54FF4607421
:1005400001F0004521F000411CE700BF50EA010224
:1005500008BF704730B54FF000050AE050EA0102CD
:1005600008BF704730B511F0004502D5404261EB3D
:1005700041014FF4806404F132045FEA915C3FF47E
:10058000D8AE4FF003025FEADC0C18BF03325FEA1B
:10059000DC0C18BF033202EBDC02C2F1200300FACC
:1005A00003FC20FA02F001FA03FE40EA0E0021FAF1
:1005B00002F11444BDE600BF70B54FF0FF0C4CF4DF
:1005C000E06C1CEA11541DBF1CEA135594EA0C0F91
:1005D00095EA0C0F00F0DEF82C4481EA030621EACC
:1005E0004C5123EA4C5350EA013518BF52EA033507
:1005F00041F4801143F4801338D0A0FB02CE4FF0B9
:100600000005E1FB02E506F00042E0FB03E54FF0E8
:100610000006E1FB03569CF0000F18BF4EF0010EE0
:10062000A4F1FF04B6F5007F64F5407404D25FEADC
:100630004E0E6D4146EB060642EAC62141EA55518F
:100640004FEAC52040EA5E504FEACE2EB4F1FD0CD1
:1006500088BFBCF5E06F1ED8BEF1004F08BF5FEA4F
:10066000500E50F1000041EB045170BD06F0004601
:1006700046EA010140EA020081EA0301B4EB5C04AE
:10068000C2BFD4EB0C0541EA045170BD41F48011A6
:100690004FF0000E013C00F3AB8014F1360FDEBFCB
:1006A000002001F0004170BDC4F10004203C35DAA7
:1006B0000C341BDC04F11404C4F1200500FA05F32A
:1006C00020FA04F001FA05F240EA020001F00042CB
:1006D00021F0004110EBD37021FA04F642EB060141
:1006E0005EEA430E08BF20EAD37070BDC4F10C046B
:1006F000C4F1200500FA04F320FA05F001FA04F22F
:1007000040EA020001F0004110EBD37041F100011A
:100710005EEA430E08BF20EAD37070BDC4F1200525
:1007200000FA05F24EEA020E20FA04F301FA05F28D
:1007300043EA020321FA04F001F0004121FA04F235
:1007400020EA020000EBD3705EEA430E08BF20EA05
:10075000D37070BD94F0000F0FD101F0004640003F
:1007600041EB010111F4801F08BF013CF7D041EAC1
:10077000060195F0000F18BF704703F000465200C5
:1007800043EB030313F4801F08BF013DF7D043EA96
:100790000603704794EA0C0F0CEA135518BF95EA4C
:1007A0000C0F0CD050EA410618BF52EA4306D1D1D3
:1007B00081EA030101F000414FF0000070BD50EAF2
:1007C000410606BF1046194652EA430619D094EA7C
:1007D0000C0F02D150EA013613D195EA0C0F05D166
:1007E00052EA03361CBF104619460AD181EA0301BA
:1007F00001F0004141F0FE4141F470014FF0000072
:1008000070BD41F0FE4141F4780170BD70B54FF00C
:10081000FF0C4CF4E06C1CEA11541DBF1CEA13558C
:1008200094EA0C0F95EA0C0F00F0A7F8A4EB05046E
:1008300081EA030E52EA03354FEA013100F0888065
:100840004FEA03334FF0805545EA131343EA12632E
:100850004FEA022245EA111545EA10654FEA0026E3
:100860000EF000419D4208BF964244F1FD0404F59C
:10087000407402D25B084FEA3202B61A65EB0305F8
:100880005B084FEA32024FF480104FF4002CB6EBB5
:10089000020E75EB030E22BFB61A754640EA0C0035
:1008A0005B084FEA3202B6EB020E75EB030E22BF75
:1008B000B61A754640EA5C005B084FEA3202B6EBB6
:1008C000020E75EB030E22BFB61A754640EA9C0075
:1008D0005B084FEA3202B6EB020E75EB030E22BF45
:1008E000B61A754640EADC0055EA060E18D04FEA03
:1008F000051545EA16754FEA06164FEAC30343EAA3
:1009000052734FEAC2025FEA1C1CC0D111F4801F6F
:100910000BD141EA00014FF000004FF0004CB6E768
:1009200011F4801F04BF01430020B4F1FD0C88BF07
:10093000BCF5E06F3FF6AFAEB5EB030C04BFB6EB12
:10094000020C5FEA500C50F1000041EB045170BD05
:100950000EF0004E4EEA113114EB5C04C2BFD4EB32
:100960000C0541EA045170BD41F480114FF0000EB6
:10097000013C90E645EA060E8DE60CEA135594EA32
:100980000C0F08BF95EA0C0F3FF43BAF94EA0C0F35
:100990000AD150EA01347FF434AF95EA0C0F7FF4AA
:1009A00025AF104619462CE795EA0C0F06D152EAFE
:1009B00003353FF4FDAE1046194622E750EA4106E2
:1009C00018BF52EA43067FF4C5AE50EA41047FF4F3
:1009D0000DAF52EA43057FF4EBAE12E74FF0FF3C58
:1009E00006E000BF4FF0010C02E000BF4FF0010C29
:1009F0004DF804CD4FEA410C7FEA6C5C4FEA430CA2
:100A000018BF7FEA6C5C1BD001B050EA410C0CBFF0
:100A100052EA430C91EA030F02BF90EA020F002052
:100A2000704710F1000F91EA030F58BF994208BFB9
:100A300090422CBFD8176FEAE37040F00100704776
:100A40004FEA410C7FEA6C5C02D150EA013C07D1CD
:100A50004FEA430C7FEA6C5CD6D152EA033CD3D018
:100A60005DF8040B704700BF8446104662468C4612
:100A70001946634600E000BF01B5FFF7B7FF002845
:100A800048BF10F1000F01BD4DF808EDFFF7F4FF6E
:100A90000CBF012000205DF808FB00BF4DF808EDF9
:100AA000FFF7EAFF34BF012000205DF808FB00BF1C
:100AB0004DF808EDFFF7E0FF94BF012000205DF83E
:100AC00008FB00BF4DF808EDFFF7CEFF94BF0120F3
:100AD00000205DF808FB00BF4DF808EDFFF7C4FFEC
:100AE00034BF012000205DF808FB00BF4FEA410C35
:100AF0007FEA6C5C02D150EA013C0AD14FEA430C18
:100B00007FEA6C5C02D152EA033C02D14FF0000054
:100B100070474FF0010070474FEA410212F5001292
:100B200015D211D56FF47873B3EB625212D94FEA34
:100B3000C12343F0004343EA505311F0004F23FA1E
:100B400002F018BF404270474FF00000704750EA73
:100B5000013005D111F0004008BF6FF00040704730
:100B60004FF00000704700BF4A0011D212F500128A
:100B700011D20DD56FF47873B3EB62520ED44FEAF5
:100B8000C12343F0004343EA505323FA02F0704775
:100B90004FF00000704750EA013002D14FF0FF30B3
:100BA00070474FF0000070474FEA4102B2F1E04356
:100BB00024BFB3F5001CDCF1FE5C0DD901F0004C44
:100BC0004FEAC0024CEA5070B2F1004F40EB830094
:100BD00008BF20F00100704711F0804F21D113F1C0
:100BE0003872BCBF01F00040704741F480114FEAF9
:100BF0005252C2F11802C2F1200C10FA0CF320FA82
:100C000002F018BF40F001004FEAC1234FEAD3239E
:100C100003FA0CFC40EA0C0023FA02F34FEA430308
:100C2000CCE77FEA625307D150EA01331EBF4FF091
:100C3000FE4040F44000704701F0004040F0FE40AC
:100C400040F40000704700BF38B50C460546214609
:100C5000284600220023FFF721FF28B92846214615
:100C6000BDE8384000F00AB8284604F1004100F021
:100C700005F8404261EB410138BD00BFD0B500220C
:100C80000B4B06460F46FFF797FCFFF76DFF044638
:100C9000FFF718FC0022074BFFF78EFC02460B46BD
:100CA00030463946FFF7D0FAFFF75EFF2146D0BD48
:100CB0000000F03D0000F04108B5074D074C284604
:100CC000042100F070FB23684FF4FA7001332360B5
:100CD00001F0F4F8F3E700BF001401400002002027
:100CE000002608B5064C074D23682846022B08BF8E
:100CF000266003F04BFC4FF4FA7001F0DFF8F3E7E5
:100D000000020020C080000807B54FF0FF330190BB
:100D1000012201A9034800F0E3FF019803B05DF848
:100D200004FB00BF181B002010B590B0102200215A
:100D300009A802F043FD1422002101A802F03EFDA3
:100D400002244FF4803301220021CDE90623CDE9AE
:100D50000D434FF4E01306A808910A920F9300F098
:100D60002BFB08B172B6FEE70F23CDE901344FF437
:100D700080630390CDE90430214601A800F0F2FC25
:100D800008B172B6FEE710B010BD000000B589B022
:100D900000F0A4F9FFF7C8FF102200210DEB0200BC
:100DA00002F00CFD294B04219A69294842F01002F7
:100DB0009A619A69002402F010020192019A9A69DC
:100DC00042F020029A619A6902F020020292029A8D
:100DD0009A6942F004029A619B69012203F00403BC
:100DE0000393039B00F0DAFA04220123CDE90423E4
:100DF0000323174804A9CDE9064300F0E5F94FF4B1
:100E0000E13314481449C0E90244C0E900130C233B
:100E10000461C0E90534C46100F034FF044608B140
:100E200072B6FEE700F0B2FF21460C4A0C4800F013
:100E3000E9FF0C4B214618600B4A0C4800F0E2FF1A
:100E40000B4B186000F0BEFFFEE700BF0010024031
:100E500000140140181B002000380140D480000815
:100E6000B90C0008141B0020F8800008E10C0008F1
:100E70005C1B00200268034B9A4201D100F040B98C
:100E8000704700BF002C0140114B07B59A690F2134
:100E900042F001029A619A696FF0010002F00102CA
:100EA0000092009ADA6942F08052DA61DB6900222E
:100EB00003F080530193019B00F046F9054A536803
:100EC00023F0E06343F00073536003B05DF804FB6C
:100ED000001002400000014010B5044686B0102208
:100EE000002102A802F06AFC2268174B9A4228D11E
:100EF00003F558439A69154842F480429A619A6909
:100F000002A902F480420092009A9A6942F0040217
:100F10009A619B694FF4007203F004030193019BF3
:100F20000223CDE902230323059300F04DF94FF48A
:100F3000806100230548CDE9021302A9049300F063
:100F400043F906B010BD00BF003801400008014061
:100F500010B5014688B00022192000F0F5F81920DC
:100F600000F024F9144B01A99A6903A842F4006225
:100F70009A619B69114C03F400630293029B00F099
:100F8000ADFC00F09BFC0E4B236040F2E733E360C6
:100F90000C4BB0FBF3F00023013860602046236166
:100FA000A36000F0DFFD20B9204600F0B7FC08B0D8
:100FB00010BD0120FBE700BF00100240601B0020B5
:100FC000002C014040420F00FEE7FEE7FEE7FEE78F
:100FD000FEE77047014800F0D7BC00BF601B00204F
:100FE0000120704708B502F0B1FB162303604FF0F3
:100FF000FF3008BD08B502F0A9FB16230360FEE729
:1010000070B50E4614460025A54201DB204670BD92
:10101000AFF3008070550135F6E770B50E46144603
:101020000025A54201DB204670BD705DFFF76CFE18
:101030000135F6E74FF0FF3070474FF400530020C2
:101040004B60704701207047002070470B4B0246F1
:10105000196810B509B90A491960186809490A4C94
:101060000244091B8A4206D902F070FB0C2303607C
:101070004FF0FF3010BD1A60FCE700BF04020020F3
:10108000001C002000C00020000400007047000089
:101090000C480D490D4A002302E0D458C4500433D3
:1010A000C4188C42F9D30A4A0A4C002301E01360A9
:1010B0000432A242FBD3FFF7E9FF02F04DFBFFF73A
:1010C00065FE704700000020E4010020148600083F
:1010D000E4010020FC1B0020FEE70000074A08B5E1
:1010E0001368032043F01003136000F01BF8002086
:1010F000FFF72EFFFFF7C8FE002008BD00200240CA
:10110000034A044B11681B780B441360704700BFFF
:10111000A81B002004000020014B1868704700BF86
:10112000A81B002007490302CA6803F4E06322F405
:10113000E0621204120C134343F0BF6343F4003324
:10114000CB60704700ED00E0164B30B5DC68C4F3AF
:101150000224C4F10703251D042B28BF0423062DF8
:101160004FF0FF3598BF002405FA03F388BF033C16
:1011700021EA0303A34005FA04F422EA040200284A
:1011800043EA0203ACBF00F16040074A4FEA031391
:10119000DBB2ABBF00F5614000F00F0080F8003318
:1011A000135430BD00ED00E014ED00E0002808DB32
:1011B0000123420900F01F0003FA00F0014B43F83D
:1011C0002200704700E100E02DE9F74F00221646AB
:1011D0006B4F6C4BDFF8B4C1DFF8B4E10C6834FA44
:1011E00006F502D103B0BDE8F08F4FF0010808FA10
:1011F00006F804EA080538EA040440F082804C68E6
:10120000032C07D8013C022C00F28D80DFE804F0AB
:101210009EA3A900122C00F0A18074D8112C00F01C
:101220009780FF2D98BF82464FF00F0988BF00F1CD
:10123000040A4FEA8604DAF8008088BF203C09FAE5
:1012400004FB28EA0B0802FA04F448EA0404CAF88A
:101250000040D1F804A01AF0805F52D0BC6926F09B
:10126000030844F00104BC61BC6908F1804804F043
:101270000104019408F5803806F0030B019C4FEA45
:101280008B0BD8F8084009FA0BF924EA09093E4CFF
:10129000A0426AD004F58064A04268D004F580645E
:1012A000A04266D004F58064A04264D004F5806456
:1012B000A04262D060450CBF0524062404FA0BF45A
:1012C00044EA0904C8F808401C681AF4803F14BFB7
:1012D0002C43AC431C605C681AF4003F14BF2C43E1
:1012E000AC435C609C681AF4801F14BF2C43AC4371
:1012F0009C60DC681AF4001F14BF254324EA05052E
:10130000DD6001366AE774450DD018D8DFF88490A7
:101310004C4508D009F570294C4504D0A9F5801931
:101320004C457FF47EAF8A68EAB1012A08BFC0F855
:1013300010804FF0080218BFC0F8148071E7DFF882
:1013400058904C45EFD009F58039E9E7CA6868E75D
:10135000CA68043265E7CA68083262E7CA680C32B4
:101360005FE700225DE704225BE70024A6E7012493
:10137000A4E70224A2E70324A0E704249EE700BF19
:10138000001002400004014000080140001C014020
:101390000000221000001210000031100AB101619B
:1013A00070470904FBE7C36801EA030221EA03016D
:1013B00041EA0241016170472DE9F341054638B326
:1013C0000368DB0710D42B689F075ED42B681907CE
:1013D00000F195802B685A0700F1BF80E86900286A
:1013E00040F02C81002029E08F4C636803F00C034F
:1013F000042B07D0636803F00C03082B0AD1636841
:10140000DE0307D523689C03DDD56B68002BDAD19A
:10141000012013E06B68B3F5803F12D1236843F4D9
:1014200080332360FFF778FE064623689803CAD40A
:10143000FFF772FE801B6428F7D9032002B0BDE8D5
:10144000F0819BB9236823F480332360236823F45D
:1014500080232360FFF760FE064623689903B2D518
:10146000FFF75AFE801B6428F7D9E6E7B3F5A02FF3
:10147000236803D143F480232360CFE723F4803330
:101480002360236823F48023CBE7674C636813F061
:101490000C0F07D0636803F00C03082B10D16368AE
:1014A000DA030DD423689B0702D52B69012BAFD13A
:1014B00023686A6923F0F80343EAC203236085E7DF
:1014C0002A695A4B6AB101221A60FFF725FE0646C7
:1014D00023689F07ECD4FFF71FFE801B0228F7D973
:1014E000ABE71A60FFF718FE0646236898077FF5FA
:1014F0006DAFFFF711FE801B0228F6D99DE7AA69A0
:10150000494E4B4BDAB101221A60FFF705FE044643
:10151000736A9B070DD54FF4FA52464B1B68B3FB19
:10152000F2F3019300BF019B5A1E0192002BF9D1E7
:1015300050E7FFF7F1FD001B0228E9D97DE71A60AB
:10154000FFF7EAFD0446736A9F077FF543AFFFF795
:10155000E3FD001B0228F6D96FE7334CE369D8009E
:1015600024D40127E36943F08053E361E36903F086
:1015700080530093009B304E3368D90518D5EB6833
:10158000012B26D1236A43F001032362FFF7C4FD38
:1015900041F288380646236A9B073FD5002F3FF467
:1015A0001DAFE36923F08053E36117E70027E2E70B
:1015B000336843F480733360FFF7AEFD80463368D1
:1015C000DA05DCD4FFF7A8FDA0EB08006428F6D903
:1015D00033E7ABB9236A41F2883823F00103236271
:1015E000236A23F004032362FFF796FD0646236A6D
:1015F0009807D3D5FFF790FD801B4045F7D91CE72E
:10160000052B236A03D143F004032362BAE723F0D6
:1016100001032362236A23F00403B6E7FFF77CFD8E
:10162000801B4045B7D908E7001002400000424245
:101630008004424200000020007000402A4B5A689B
:101640001C4602F00C02082A3DD00023274E022837
:1016500033602BD1FFF760FD0746236899011FD443
:101660002B6AB3F5803F05D16268A96822F4003285
:101670000A436260696A62680B4322F4741213437E
:10168000636001233360FFF747FD054623689A0135
:101690003FF5A8AEFFF740FD401B0228F6D9CCE687
:1016A000FFF73AFDC01B0228D7D9C6E6FFF734FD85
:1016B000054623689B017FF595AEFFF72DFD401B86
:1016C0000228F6D9B9E601283FF4B8AE5B682A6A69
:1016D00003F4803191427FF49BAE6A6A03F4701385
:1016E00093423FF47FAE93E6001002406000424216
:1016F00030B5184B87B002AC03F1100522461868CC
:101700005968083303C2AB421446F7D140F20123B3
:101710001149ADF804304B6803F00C02082A17D1C8
:10172000C3F3834206A80244DB0312F8102C0CD545
:101730004B680A48C3F34043504306AA134413F8C6
:10174000143CB0FBF3F007B030BD05485043FAE756
:101750000248F8E7348100080010024000127A00C5
:1017600000093D002DE9F0410D46044610B9012065
:10177000BDE8F081444A136803F007038B4228D385
:1017800021688E0730D4CA0743D43F4A136803F058
:101790000703AB4265D822683C4D12F0040F6CD1B0
:1017A000130706D56B68226923F4605343EAC2032A
:1017B0006B60FFF79DFF6B68354AC3F30313D35C7F
:1017C000D840344B1860344B1868FFF7C1FB002039
:1017D000CEE7136823F007030B431360136803F08D
:1017E00007038B42C3D1CBE7284B11F0040F1EBF78
:1017F0005A6842F4E0625A60080742BF5A6842F4ED
:1018000060525A605A68A06822F0F00202435A609F
:10181000B9E762681D4E012A33681AD113F4003FFC
:10182000A5D0736841F2883823F003031343736033
:10183000FFF772FC07467368626803F00C03B3EBB2
:10184000820FA2D0FFF768FCC01B4045F3D90320EC
:101850008EE7022A02D113F0007FE1E713F0020FB6
:10186000DEE7136823F007032B431360136803F0CC
:101870000703AB427FF47BAF8DE76B68E16823F42D
:10188000E0630B436B608BE70020024000100240D6
:101890001C8100080000002008000020044B054ABD
:1018A0005B68C3F30223D35C034A1068D8407047D7
:1018B000001002402C81000800000020044B054A63
:1018C0005B68C3F3C223D35C034A1068D8407047F7
:1018D000001002402C810008000000200F2303604C
:1018E0000B4B5A6802F0030242605A6802F0F002A1
:1018F00082605A6802F4E062C2605B68DB0803F44D
:10190000E0630361034B1B6803F007030B60704740
:1019100000100240002002407047000090F83D3067
:10192000012B28D1022380F83D300368DA6842F0A9
:101930000102DA60114A934212D002F5006293422A
:101940000ED0B3F1804F0BD0A2F59832934207D05E
:1019500002F58062934203D002F58062934204D183
:101960009A6802F00702062A03D01A6842F00102C0
:101970001A60002070470120704700BF002C014012
:101980007047704770477047036810B51A6904467E
:1019900091070ED5DA6892070BD56FF002021A6133
:1019A000012202779B699B0777D0FFF7EAFF0023AC
:1019B000237723681A69500710D5DA6851070DD5C7
:1019C0006FF004021A61022222779B69204613F409
:1019D000407F68D0FFF7D5FF0023237723681A697B
:1019E00012070FD5DA6810070CD56FF008021A61DC
:1019F00004222277DB69204699075AD0FFF7C1FFFE
:101A00000023237723681A69D20610D5DA68D00636
:101A10000DD56FF010021A6108222277DB6920468B
:101A200013F4407F4BD0FFF7ACFF002323772368EC
:101A30001A69D10708D5DA68D20705D56FF0010217
:101A400020461A61FFF716FA23681A69100608D5AE
:101A5000DA68110605D56FF0800220461A6100F0A1
:101A6000AEF823681A69520608D5DA68500605D51B
:101A70006FF0400220461A61FFF785FF23681A695C
:101A8000910622D5DA6892061FD56FF02002204613
:101A9000BDE810401A6100F091B8FFF771FF2046D1
:101AA000FFF770FF83E7FFF76BFF2046FFF76AFF42
:101AB00092E7FFF765FF2046FFF764FFA0E7FFF717
:101AC0005FFF2046FFF75EFFAFE710BD244A0368C3
:101AD000904212D002F5006290420ED0B0F1804FD9
:101AE0000BD0A2F59832904207D002F58062904266
:101AF00003D002F5806290421DD14A6823F0700342
:101B00001343174A904212D002F5006290420ED061
:101B1000B0F1804F0BD0A2F59832904207D002F579
:101B20008062904203D002F58062904203D1CA687D
:101B300023F4407313434A6923F080031343036083
:101B40008B68C3620B688362054B984203D003F530
:101B50000063984201D10B6903630123436170471D
:101B6000002C014010B5044630B390F83D3003F02E
:101B7000FF021BB980F83C20FFF7CEFE022320684D
:101B800084F83D30211DFFF7A1FF0123002084F8D8
:101B9000463084F83E3084F83F3084F8403084F892
:101BA000413084F8423084F8433084F8443084F87B
:101BB000453084F83D3010BD0120FCE77047704788
:101BC00010B504460368C1681A6922F440520A43FA
:101BD0001A6182680069D9680243606921F4B051D2
:101BE00021F00C0102430A43DA605A69A16922F428
:101BF00040720A435A610E4A934215D1FFF75EFEC6
:101C000019234343626820689200B3FBF2F3642215
:101C1000B3FBF2F102FB11331B013233B3FBF2F3DE
:101C200003EB0113836010BDFFF738FEE8E700BF48
:101C300000380140F8B504460E4617461D46226896
:101C4000136836EA030301D1002014E06B1CF7D0BF
:101C500095B923680320DA6822F4D072DA605A69F1
:101C600022F001025A61202384F83D3084F83E308E
:101C7000002384F83C30F8BDFFF74EFAC01B8542C4
:101C8000DDD2E6E710B5044640B390F83D3003F0EE
:101C9000FF021BB980F83C20FFF71EF924232268BD
:101CA00084F83D30D368204623F40053D360FFF717
:101CB00087FF236800201A6922F490421A615A694A
:101CC00022F02A025A61DA6842F40052DA602023D4
:101CD000206484F83D3084F83E3010BD0120FCE7DC
:101CE0002DE9F843994690F83D300446202B0E46E6
:101CF000174648D1002944D0002A42D090F83C3001
:101D0000012B40D00123002580F83C3021230564BD
:101D100080F83D30FFF700FAA3688046B3F5805F96
:101D2000A784E78403D123690BB935461E460023F7
:101D300084F83C30E38C9BB253B94B464246402179
:101D40002046FFF777FF50B9202384F83D3007E0A5
:101D50004B46424680212046FFF76CFF10B103201E
:101D6000BDE8F88322684EB935F8023BC3F3080397
:101D70005360E18C013989B2E184DBE716F8013B5D
:101D8000F6E70120ECE70220EAE70000EFF3058325
:101D900013B16FF005007047EFF31083002BF8D1FB
:101DA000074B1868022806D1EFF31183002BF0D1FE
:101DB0004FF0FF3070470028FAD101221A607047B7
:101DC0006404002010B5EFF3058313B16FF0050034
:101DD00010BDEFF31084002CF8D1094B1A68022AC9
:101DE00006D1EFF31183002BF0D14FF0FF30EFE776
:101DF000012AFAD102221A6000F0A0FD2046E7E78E
:101E000064040020F0B51446002287B00B4605920A
:101E1000EFF3058252BBEFF310823ABB264A1268F9
:101E2000022A02D1EFF3118202BBF8B100228DF831
:101E30001320002C30D0216809B90DF11301A569D8
:101E4000002D08BF18256A1E372AAC462AD86268BA
:101E5000D20727D4666966B1B208D4E9027E57B1C9
:101E6000BEF15B0F02D9246904B1EEB9059807B041
:101E7000F0BD8022F1E7BEF1000FF7D12469002CFC
:101E8000F4D105ACCDE900C492B200F02AFD0128DE
:101E90001CBF00230593E9E74FF0180C80220DF1D9
:101EA0001301EEE70020E2E7CDE90147009500F0DD
:101EB000E1FC0590DAE700BF6404002008B5EFF309
:101EC000058313B16FF0050008BDEFF31083002BFD
:101ED000F8D1074B1B68022B03D1EFF31183002BC2
:101EE000F0D10028F0D000F07FFE0020ECE700BF2A
:101EF00064040020034B0360034B0B6080231360DA
:101F0000704700BF0804002008020020034B036054
:101F1000034B0B604FF48073136070476808002018
:101F2000680400204FF0FF3200F10803C0E90223EB
:101F3000436003610023036070470023036170471F
:101F400043689A684B608A609A6851609960036838
:101F5000086101330360704730B50C68631C0AD117
:101F600003695A684A6091608B6059600368086130
:101F70000133036030BD00F1080213465268156852
:101F8000A542FAD9EDE70369D0E901128A605160F0
:101F90005968814208BF5A60002202611A68013AFA
:101FA0001A601868704710B5044601F0DBF9A46B9D
:101FB00001F0FAF9B4FA84F0400910BDF8B51546FD
:101FC000026C0446866B52B9076847BB406800F054
:101FD00043FF0546676001362846A663F8BD65B92C
:101FE000806801F0DDFBA368226C13446268A36083
:101FF0009342F0D32368A360EDE7C06801F0D0FB03
:10200000226CE36851429B1A2268E36093423EBF10
:1020100063685B18E360022D01D116B1013E002513
:10202000D9E73546D7E703461A6C084610B462B1C3
:10203000DC68596814448C4228BF1968DC6028BFEA
:10204000D960D96810BC01F0ABBB10BC704770B54B
:10205000044601F087F994F8455004F124066DB266
:10206000002D14DCFF2384F8453001F09DF901F0C8
:1020700079F994F8445004F110066DB2002D12DC89
:10208000FF2384F84430BDE8704001F08DB9636AE5
:10209000002BE7D0304600F041FE08B100F0C6FE4C
:1020A000013D6DB2DCE72369002BE9D0304600F03A
:1020B00035FE08B100F0BAFE013D6DB2DEE700006A
:1020C00038B50D46044640B94FF0500383F31188EC
:1020D000BFF36F8FBFF34F8FFEE701F043F9D4E9F1
:1020E0000F314B432268D0185B1A13446060E360E1
:1020F0000020FF23A063A26084F8443084F84530B8
:1021000095B9236963B104F1100000F007FE38B1FE
:102110004FF08052094B1A60BFF34F8FBFF36F8FA0
:1021200001F042F9012038BD04F11000FFF7FAFE7A
:1021300004F12400FFF7F6FEF2E700BF04ED00E033
:1021400037B50D461C4640B94FF0500383F3118854
:10215000BFF36F8FBFF34F8FFEE743B94FF05003CC
:1021600083F31188BFF36F8FBFF34F8FFEE74AB140
:1021700091B94FF0500383F31188BFF36F8FBFF312
:102180004F8FFEE741B14FF0500383F31188BFF347
:102190006F8FBFF34F8FFEE750230193019B502BAE
:1021A00008D04FF0500383F31188BFF36F8FBFF354
:1021B0004F8FFEE70121002D08BF2246C4E90F051D
:1021C00084F8461020462260FFF77AFF20469DF8EB
:1021D000183084F84C3003B030BD00002DE9FF47C3
:1021E00088461F460446019240B94FF0500383F3DE
:1021F0001188BFF36F8FBFF34F8FFEE751B9036CA8
:1022000043B14FF0500383F31188BFF36F8FBFF3D7
:102210004F8FFEE7022F0BD1E36B012B08D04FF05D
:10222000500383F31188BFF36F8FBFF34F8FFEE727
:1022300000F002FE064650B9019B4BB14FF050032F
:1022400083F31188BFF36F8FBFF34F8FFEE7002634
:102250004FF00009DFF8E4A037E0019D1DB901F05F
:10226000A3F8002050E016B902A800F097FD01F095
:102270009BF800F0A7FB01F075F894F84430FF2BB1
:1022800008BF84F8449094F84530FF2B08BF84F8C9
:10229000459001F089F801A902A800F08BFD002803
:1022A00046D101F05FF8A26BE36B9A422FD101F0A7
:1022B0007BF8019904F1100000F0F6FC2046FFF7CE
:1022C000C6FE00F01DFC50B3012601F04BF8A26BD6
:1022D000E36B9A4201D3022FBFD13A4641462046D2
:1022E000FFF76CFE636A1BB104F1240000F016FDD9
:1022F00038B14FF08052114B1A60BFF34F8FBFF3CC
:102300006F8F01F051F8012004B0BDE8F08701F0B3
:102310004BF82046FFF79BFE00F0F2FBD4E74FF0AE
:102320008053CAF80030BFF34F8FBFF36F8FCBE7F6
:102330002046FFF78CFE00F0E3FB92E704ED00E09F
:102340002DE9F843894690461F46044640B94FF0B0
:10235000500383F31188BFF36F8FBFF34F8FFEE7F6
:1023600051B9036C43B14FF0500383F31188BFF3AD
:102370006F8FBFF34F8FFEE7022F0BD1E36B012B63
:1023800008D04FF0500383F31188BFF36F8FBFF372
:102390004F8FFEE701F0C6F8EFF311864FF05003C0
:1023A00083F31188BFF36F8FBFF34F8FA26BE36B83
:1023B0009A4201D3022F22D194F845503A46494619
:1023C00020466DB2FFF7FAFD6B1C13D1636A0BB99F
:1023D00001200BE004F1240000F0A0FC0028F7D05D
:1023E000B8F1000FF4D00120C8F8000086F311887E
:1023F000BDE8F88301356DB284F84550E8E7002068
:10240000F4E700002DE9F04385B00F460446019241
:1024100040B94FF0500383F31188BFF36F8FBFF3C0
:102420004F8FFEE751B9036C43B14FF0500383F374
:102430001188BFF36F8FBFF34F8FFEE700F0FCFCF6
:10244000064650B9019B4BB14FF0500383F31188FE
:10245000BFF36F8FBFF34F8FFEE700264FF00008EA
:10246000DFF8DC903BE0019D1DB900F09DFF0020EE
:1024700052E016B902A800F091FC00F095FF00F0C0
:10248000A1FA00F06FFF94F84430FF2B08BF84F8E6
:10249000448094F84530FF2B08BF84F8458000F055
:1024A00083FF01A902A800F085FC00283DD1204649
:1024B000FFF779FD98B3019904F1240000F0F4FBD3
:1024C0002046FFF7C4FD00F01BFB38B94FF08053E6
:1024D000C9F80030BFF34F8FBFF36F8F012600F0B4
:1024E00041FFA56B002DBED039462046013DFFF7C8
:1024F0009AFDA563236963B104F1100000F00EFC9E
:1025000038B14FF080520E4B1A60BFF34F8FBFF3BC
:102510006F8F00F049FF012005B0BDE8F083204631
:10252000FFF795FD00F0ECFAD8E72046FFF78FFDA6
:1025300000F0E6FA2046FFF736FD0028CED096E7F9
:1025400004ED00E0002330B5064A52F8335002EBA8
:10255000C3041DB942F83310606030BD0133082B4D
:10256000F3D1FAE7AC1B002070B504460D461646C1
:1025700000F0F8FE94F84430FF2B04BF002384F8E9
:10258000443094F84530FF2B04BF002384F84530D5
:1025900000F00AFFA36B2BB93246294604F1240050
:1025A00000F09CFB2046BDE87040FFF750BD0000E6
:1025B0002DE9F041044600F0D5FE2F4B2F4D1A684F
:1025C0002F4F01321A602E68002E49D12C601B68F3
:1025D000012B1FD1B84640460136FFF7A3FC382E29
:1025E00008F11408F7D1DFF8C480264E4046FFF703
:1025F00099FC3046FFF796FC2348FFF793FC2348ED
:10260000FFF790FC2248FFF78DFC224BC3F80080B7
:10261000214B1E601420214A136801331360204AA5
:1026200063641168E36A8B4200FB037004F10401E8
:1026300088BF1360FFF784FC00F0B6FE194B1B68DF
:1026400063B12B68DA6AE36A9A4207D24FF080528C
:10265000154B1A60BFF34F8FBFF36F8FBDE8F0814A
:10266000104B1B68002BD5D12B68DA6AE36A9A42BB
:1026700098BF2C60CEE700BF300D0020C4080020BA
:10268000D00800205C0D0020780D0020A40D002053
:10269000900D0020C8080020CC080020400D00202C
:1026A000440D00208C0D002004ED00E0480D0020BA
:1026B000064A13681968064B19B94FF0FF321A60C1
:1026C00070471268D268D2685268F8E7C8080020DC
:1026D000700D00202DE9F0470D46DDE909844FEA31
:1026E00082094A460646A521206B1F4601F066F87E
:1026F000226BA9F1040991446B1E29F0070904F12A
:1027000034020F3513F8011F02F8011B197809B1C3
:10271000AB42F7D1089D4FF0000A372D28BF37256F
:10272000201DC4E9135AE56284F843A0FFF705FCB5
:10273000C5F1380504F11800FFF7FFFBC4F854A0F9
:102740003A46314648462461A561646284F858A03F
:1027500000F0DEFD2060B8F1000F01D0C8F80040A5
:10276000BDE8F08710B590F8593004463BB9006BCE
:1027700000F0B4FF2046BDE8104000F0AFBF012BD1
:10278000F9D0022B08D04FF0500383F31188BFF328
:102790006F8FBFF34F8FFEE710BD000080B5DFF8ED
:1027A0005C80124F124C134D236863B9124B1B68A7
:1027B000012BF8D94FF08053C8F80030BFF34F8F8A
:1027C000BFF36F8FEEE700F0CDFDFB68DE68301DD4
:1027D000FFF7D9FB2B68013B2B602368013B23608B
:1027E00000F0E2FD3046FFF7BDFFDDE7A40D00205D
:1027F000340D0020300D0020D008002004ED00E052
:10280000F8B50546154B164E1C6830680F46043067
:10281000FFF7B9FB6B1C334607D137B1316811485C
:102820000431BDE8F840FFF78BBB1A6864195460A7
:1028300007D30D4A10681968BDE8F8400431FFF766
:102840008BBB0A4A106819680431FFF785FB084BF7
:102850001A68A24288BF1C60F8BD00BFB80D0020F6
:10286000C4080020900D0020CC080020C8080020DB
:10287000700D002070B586B0DDE90B5445B94FF0FE
:10288000500383F31188BFF36F8FBFF34F8FFEE7C1
:1028900044B94FF0500383F31188BFF36F8FBFF338
:1028A0004F8FFEE75C260496049E5C2E08D04FF006
:1028B000500383F31188BFF36F8FBFF34F8FFEE791
:1028C0002563022584F8595005AD01950A9D0294AF
:1028D0000095FFF7FFFE2046FFF76AFE059806B059
:1028E00070BD2DE9F043074685B090008846164636
:1028F000994600F069FE0546E8B15C2000F064FEF0
:102900000446A8B1002380F859300D9B056301935C
:102910000C9B324641460290009338464B46FFF7E7
:10292000D9FE2046FFF744FE012005B0BDE8F08344
:10293000284600F0D3FE4FF0FF30F6E710B5002434
:1029400088B007AA06A905A8CDE90544FFF7D2FA81
:10295000059B079A0293069B1549CDE9004315484C
:102960002346FFF787FFA8B100F00AFB012813D127
:102970004FF0500383F31188BFF36F8FBFF34F8F76
:102980004FF0FF320C4B1A600C4B18600C4B1C6064
:1029900000F070FD08B010BD0130FBD14FF05003C6
:1029A00083F31188BFF36F8FBFF34F8FFEE700BF34
:1029B000458100089D270008700D00208C0D002027
:1029C000B80D0020024A136801331360704700BF3E
:1029D0003C0D0020014B1868704700BFB80D002067
:1029E0002DE9F84F3B4B1B68002B6DD13A4B1D680E
:1029F00001351D60BDB9394B1A68126842B14FF0FC
:102A0000500383F31188BFF36F8FBFF34F8FFEE73F
:102A1000334A1968106818601160324A136801332C
:102A20001360FFF745FE304E002433682F4FAB4252
:102A300010D92F4B1B68DA6A14235343FB58022B1F
:102A400028BF01242B4B1B68002B0CBF2046012004
:102A5000BDE8F88FDFF88490DFF8A0A0D9F8003047
:102A60001B681BB94FF0FF333360E2E7D9F8003041
:102A7000DB68D3F80CB0DBF80420954201D2326059
:102A8000D7E70BF104084046FFF77DFADBF8282072
:102A90001AB10BF11800FFF776FA1423DBF82C00BB
:102AA000DAF800204146904288BFCAF8000003FBD4
:102AB0000070FFF745FA0E4BDBF82C201968CB6A43
:102AC0009A4228BF0124C9E70B4A00241368013346
:102AD0001360B7E73C0D0020B80D0020C8080020A7
:102AE000CC080020740D0020700D0020D0080020BC
:102AF000C4080020BC0D0020380D0020440D00202B
:102B00002DE9F0412F4C236843B94FF0500383F374
:102B10001188BFF36F8FBFF34F8FFEE700F022FCE9
:102B20002368013B236024682CB1002400F03CFCA6
:102B30002046BDE8F081244B1B68002BF5D0234DC7
:102B4000234EDFF8A0801DE0EB68DC68271D04F150
:102B50001800FFF718FA3846FFF715FA1420E36A51
:102B6000326800FB03809342394688BF3360FFF729
:102B7000E7F9184BE26A1B68DB6A9A4202D301222A
:102B8000154B1A602B68002BDED10CB1FFF790FDBE
:102B9000124D2C6844B101270F4EFFF721FF00B101
:102BA0003760013CF9D12C600B4B1B68002BBCD06B
:102BB0004FF080520A4B1A60BFF34F8FBFF36F8FF5
:102BC0000124B3E73C0D0020300D0020780D0020DB
:102BD000440D0020C4080020BC0D0020380D00204A
:102BE00004ED00E0D008002008B540B94FF0805255
:102BF0000D4B1A60BFF34F8FBFF36F8F08BD0B4BA8
:102C0000196841B14FF0500383F31188BFF36F8F00
:102C1000BFF34F8FFEE7FFF7D5FEFFF7F1FDFFF79C
:102C20006FFF0028E2D0E9E704ED00E03C0D002052
:102C3000184BF0B51A68184B12B101221A60F0BD9A
:102C40001A60164A14271646154D2B6807FB03F128
:102C50005458501894B14468083164680A44944246
:102C600008BF6268446008BF4260142202FB03622E
:102C70005268D1680B4A11602B60E0E743B94FF00E
:102C8000500383F31188BFF36F8FBFF34F8FFEE7BD
:102C9000013BDBE73C0D0020BC0D0020D0080020EC
:102CA000440D0020C408002010B50C4640B94FF078
:102CB000500383F31188BFF36F8FBFF34F8FFEE78D
:102CC000054B19681831FFF747F92046BDE8104059
:102CD0000121FFF795BD00BFC408002038B50D469F
:102CE000144640B94FF0500383F31188BFF36F8F40
:102CF000BFF34F8FFEE7084B19681831FFF720F933
:102D0000002C214608BF2846BDE8384018BF4FF0C8
:102D1000FF30FFF775BD00BFC408002038B5C36899
:102D2000DC6844B94FF0500383F31188BFF36F8F11
:102D3000BFF34F8FFEE704F118052846FFF723F98C
:102D4000104B1B68DBB9251D2846FFF71CF90E4AFE
:102D500014201168E36A8B42294688BF13600B4A2E
:102D600000FB0320FFF7ECF8094BE26A1B68DB6A03
:102D70009A4285BF0120074B0020186038BD2946C4
:102D80000548EFE73C0D0020440D0020D00800204E
:102D9000C4080020BC0D0020780D0020034B1B68E8
:102DA0000360034B1B684360704700BF740D002035
:102DB000B80D002070B50C46054640B94FF05003E1
:102DC00083F31188BFF36F8FBFF34F8FFEE741B9D5
:102DD0004FF0500383F31188BFF36F8FBFF34F8F12
:102DE000FEE700F0BFFA0F4B196823685A1C10D099
:102DF0000D482E6800686A68864201D08A420FD961
:102E0000881A83420AD95B1A134428462360FFF7C5
:102E1000C5FF002400F0C8FA204670BD00232360DF
:102E20000124F7E7B80D0020740D00200122014BAA
:102E30001A607047BC0D0020054B1B6833B1054B71
:102E40001B68002B0CBF0220002070470120704738
:102E50008C0D00203C0D002038B508B9002038BD8D
:102E60001B4B1C68844208D04FF0500383F3118839
:102E7000BFF36F8FBFF34F8FFEE7236D43B94FF062
:102E8000500383F31188BFF36F8FBFF34F8FFEE7BB
:102E9000E16AE26C013B91422365DFD0002BDDD17A
:102EA000251D2846FFF76FF81420E36CC3F13802A4
:102EB000A261084AE36211688B4288BF1360064A28
:102EC000294600FB0320FFF73BF80120C7E700BFBE
:102ED000C4080020440D0020D0080020F7B5114C94
:102EE00000F040FA2568BDB90F4F104E3846FFF785
:102EF00019F83046FFF716F80D4B10211F600D4BE7
:102F00000A201E600C4A0D4B0095FFF719F920604E
:102F100010B10B49FFF716FB03B0BDE8F04000F01D
:102F200043BA00BFE40E0020680E00207C0E002093
:102F3000C00D0020C40D0020C80D0020940E0020FC
:102F40004A810008914208B5416000610AD8D21A4E
:102F500083699A420DD2084B011D1868FEF7FCFFE9
:102F6000002008BD9A4201D2994202D2034B011DB2
:102F7000F3E70120F5E700BFC40D0020C00D0020DD
:102F800010B588B0FFF7AAFF124B1B68B3B100243D
:102F900007AA06A905A8CDE90544FEF7B7FF059BDA
:102FA000079A0293069B0C49019302230B48009356
:102FB0002346FFF75FFC0A4B186040B94FF05003FF
:102FC00083F31188BFF36F8FBFF34F8FFEE70120AC
:102FD00008B010BDE40E00204F810008B930000891
:102FE000E80E00207FB5164604461A4640B94FF059
:102FF000500383F31188BFF36F8FBFF34F8FFEE74A
:103000000D4D286880B10529CDE9001602940DDC2C
:10301000FFF712FF0023022818BF1A46694608BFAF
:10302000089A2868FFF7DAF804B070BD00236946F3
:10303000FFF786F9F8E700BFE40E00202DE9F34121
:103040004FF000081A4D2B681A6832B9194A1168F6
:103050001360296002B0BDE8F081DB68DC681E689F
:10306000271D3846FEF78FFF636A20469847E369BD
:10307000012BE8D1A36933449E4206D23946286821
:1030800063602461FEF768FFDDE7002332461946DE
:103090002046CDF80080FFF7A5FF0028D3D14FF0E0
:1030A000500383F31188BFF36F8FBFF34F8FFEE799
:1030B000C00D0020C40D00202DE9F04F774EDFF841
:1030C000EC91B04687B03368D3F800B0BBF1000F85
:1030D00048D0DB68D3F800A0FFF774FCFFF77AFC58
:1030E0006F4D04462B682F4698423DD2FFF7A6FF4E
:1030F0002C60FFF705FD4FF0000BDFF8ACA10022BC
:10310000DAF8000002A9FFF77DF90028DBD0029B66
:103110000498002B72DB049C6369002B76D1FFF7C7
:1031200059FC3B680546984201D2FFF787FF029B96
:103130003D60092BE3D801A252F823F015320008B4
:103140001532000815320008FF300008633200080D
:10315000893200081532000815320008FF300008D7
:1031600063320008DA46B7E72860BBF1000F2AD0C7
:10317000824541D8FFF7C4FCD8F80030DB68DD6831
:10318000281DFEF700FFEB69012B18D1A9695346F2
:10319000224628465144FFF7D5FE80B1002352460F
:1031A000194628460093FFF71DFF40B94FF0500322
:1031B00083F31188BFF36F8FBFF34F8FFEE728466D
:1031C0006B6A984797E7374B1B681A68B2FA82F226
:1031D0005209354BAAEB04011868FFF7C5F9FFF750
:1031E0008FFC002887D14FF08053C9F80030BFF31F
:1031F0004F8FBFF36F8F7EE70022EAE7039B0599AD
:103200009847029B002BFFF67AAF84E7201DFEF75C
:10321000BAFE84E7A169039B2A4620461944FFF7BA
:1032200091FE00283FF46BAF636A20469847E3693C
:10323000012B7FF464AF0023A269039920460A445E
:10324000CDF800B01946FFF7CDFE00287FF457AF48
:103250004FF0500383F31188BFF36F8FBFF34F8F8D
:10326000FEE70399A16141B94FF0500383F3118840
:10327000BFF36F8FBFF34F8FFEE72B462A462046E2
:103280002944FFF75FFE3AE794F82C30002B7FF4D7
:1032900036AF204600F022FA31E700BFC00D002013
:1032A000900E0020C40D0020E40E002004ED00E08C
:1032B00006480068006880F3088862B661B6BFF30C
:1032C0004F8FBFF36F8F00DF00BF000008ED00E0FD
:1032D000002382B001930D4B1B68013308D04FF0DF
:1032E000500383F31188BFF36F8FBFF34F8FFEE757
:1032F0004FF0500383F31188BFF36F8FBFF34F8FED
:10330000019B002BFCD002B0704700BF0C000020D6
:103310004FF0807340F8043C054B21F0010140F868
:10332000081C40F80C3C40F8202C4038704700BF87
:10333000D132000800000000000000000000000082
:10334000074B19680868B0E8F00F80F30988BFF3ED
:103350006F8F4FF0000080F311884EF00D0E704714
:10336000C40800204FF0500383F31188BFF36F8F20
:10337000BFF34F8F0A4A13680133012B13600DD13D
:10338000084B1B6813F0FF0F08D04FF0500383F376
:103390001188BFF36F8FBFF34F8FFEE7704700BFF9
:1033A0000C00002004ED00E0084A136843B94FF018
:1033B000500383F31188BFF36F8FBFF34F8FFEE786
:1033C000013B13600BB983F3118870470C00002098
:1033D000EFF30980BFF36F8F0D4B1A6820E9F00FF0
:1033E00010602DE908404FF0500080F31188FFF77E
:1033F0001FFC4FF0000080F31188BDE808401968F9
:103400000868B0E8F00F80F30988BFF36F8F70474A
:10341000C408002008B54FF0500383F31188BFF3B0
:103420006F8FBFF34F8FFFF7DBFA18B14FF0805269
:10343000024B1A60002383F3118808BD04ED00E0FD
:103440000023084A084913600B604FF47A71074B58
:103450001B68B3FBF1F30649013B0B6007231360C4
:10346000704700BF10E000E018E000E0000000201E
:1034700014E000E013B5264B00211A78D2B2019275
:10348000FF221A701B78234ADBB28DF803309DF8B7
:10349000033003F05003137007231F4A13609DF895
:1034A00003005C1E00060CD411B1032B136011D075
:1034B0004FF0500383F31188BFF36F8FBFF34F8F2B
:1034C000FEE79DF8033001215B00DBB28DF803308D
:1034D0002346E4E74FF4407300241360019B0C4A39
:1034E000DBB213700D4B1A6842F470021A601A684E
:1034F00042F070421A60FFF7A3FF094B1C60FFF710
:10350000D7FEFFF795FBFFF7E3FE204602B010BDA4
:1035100000E400E0EC0E0020F00E002020ED00E0C2
:103520000C000020EFF305830F2B0ED9104A9B5C93
:10353000104A12789A4208D94FF0500383F3118849
:10354000BFF36F8FBFF34F8FFEE70B4B0B4A1B6828
:10355000126803F4E063934208D94FF0500383F3F9
:103560001188BFF36F8FBFF34F8FFEE7704700BF27
:10357000F0E300E0EC0E00200CED00E0F00E002087
:1035800010B50F4B1A461B688342FBD354681119C0
:10359000884201BF41681046091951604468011909
:1035A0008B4207D1074909688B421FBF59681B68C6
:1035B000091941609042036018BF106010BD00BF40
:1035C000041B0020F40E00202DE9F0410446FFF713
:1035D000F9F93B4B3B481A689C46D2B900213A4A5C
:1035E0003A4B55071CBF073222F007021A60596098
:1035F000374B23F00703C3E90011991AC2E90031E0
:10360000CCF80030334B1960334B19604FF0004356
:103610000360076827424ED1002C3FD004F1080315
:1036200061071CBF23F007030833002B43D02A4A4D
:10363000166890469E423ED3244A156869689942AE
:1036400001D22868A8B9DCF80000A84233D0286865
:10365000C91A10291468106012D9E81842070BD053
:103660004FF0500383F31188BFF36F8FBFF34F8F79
:10367000FEE72A460546E1E741606B60FFF780FF01
:103680006B681449F61A1F4300230868C8F80060E5
:10369000864238BF0E6008346F602B60FFF730FA47
:1036A00063070AD04FF0500383F31188BFF36F8F85
:1036B000BFF34F8FFEE70024F0E72046BDE8F0811E
:1036C000F40E0020F81A0020F80E0020041B002041
:1036D000F01A0020001B0020FC1A002010B5044640
:1036E00070B3184A50F8043C1268134208D14FF0E6
:1036F000500383F31188BFF36F8FBFF34F8FFEE743
:1037000050F8081C41B14FF0500383F31188BFF308
:103710006F8FBFF34F8FFEE723EA020340F8043CAC
:10372000FFF750F9084A54F8043C1168A4F1080066
:103730000B441360FFF724FFBDE81040FFF7E0B92A
:1037400010BD00BFF81A0020FC1A0020014B1868B9
:10375000704700BF1000002070B500260C4D0D4CC6
:10376000641BA410A64209D104F09EFC00260A4D59
:103770000A4C641BA410A64205D170BD55F8043B49
:1037800098470136EEE755F8043B98470136F2E7D3
:103790000C8600080C8600080C86000810860008BD
:1037A0000A44914200F1FF3300D1704710B511F87F
:1037B000014B914203F8014FF9D110BD0346024479
:1037C000934200D1704703F8011BF9E7002B2DE964
:1037D000F0471F46BBBF03F100431F4600232D23C4
:1037E00088B01446129A109D1370149BDDF84CA0FB
:1037F00023F02008B8F1460F05D0B8F1450F00D1ED
:103800000135022300E0032307AA049206AACDE9AA
:1038100002A2CDE9003522463B4601F0D5FEB8F1C3
:10382000470F064602D1119BDB0722D5B8F1460FA0
:1038300006EB050910D13378302B0AD10022002382
:1038400020463946FDF720F918B9C5F10105CAF837
:103850000050DAF80030994400220023204639460F
:10386000FDF712F908B1CDF81C903022079B4B45AB
:1038700007D33046079B159A9B1B136008B0BDE821
:10388000F087591C07911A70F0E70346F7B5002935
:1038900003F8022BB6BF2D222B2249420929427080
:1038A0002BDD0DF10704A4460A2791FBF7F60A4623
:1038B000A64607FB1615632A05F13005314604F1CB
:1038C000FF340EF8015CF0DC3031AEF1020504F893
:1038D000011C2946441C61450AD30DF10902A2EBE3
:1038E0000E02654588BF00221344181A03B0F0BDCC
:1038F00011F8012B04F8012FEDE7302330318370EC
:10390000C170031DF1E700002DE9F04F91B00C46A6
:10391000DDF8688016461F46054603F061F9036826
:1039200018460993FCF784FC00230E93D8F8003066
:103930000A90073323F0070303F1080294F8189064
:10394000D4F800B0C8F80020D3E90023C4E912235A
:10395000D4E9128A2AF000430B934FF0FF3240461D
:103960009C4B0B99FDF7C2F870BB4FF0FF324046FD
:10397000984B0B99FDF79CF830BB00220023404682
:103980005146FDF78BF810B12D2384F84330924B4C
:103990009248B9F1470F94BF9846804603234FF0F1
:1039A000000A23612BF00403236033462146284696
:1039B00000970FAA00F0D4F9013040F090804FF04A
:1039C000FF3011B0BDE8F08F4246534640465146A5
:1039D000FDF78CF848B1BAF1000FB8BF2D2380482D
:1039E000B8BF84F843307F4BD3E7636809F0DF0149
:1039F0005A1C42D106236360002206920EAACDE92A
:103A000004920DAA4BF4806303920DF13302CDE9C9
:103A100001322360636842460093284653460B9167
:103A2000FFF7D4FE0B99804647290D9908D1C81C91
:103A300002DB6368994240DDA9F102095FFA89F966
:103A4000B9F1650F1FD84A46013904F150000D91B4
:103A5000FFF71BFF0E9A82461318012A236102DC2E
:103A60002268D20701D5013323619DF83330002B42
:103A70009BD02D2384F8433097E74729BCD1002BF6
:103A8000BAD10123B7E7B9F1660F18D100296368ED
:103A90000BDD216113B92268D00702D501330B4435
:103AA00023614FF0000AA165DFE713B92268D2074E
:103AB00001D50233F4E70123F2E74FF067090E9BCB
:103AC000994205DB23682161D807EAD54B1CE7E75B
:103AD0000029CCBF0122C1F102021344E0E72368B0
:103AE0005A0507D42369424631462846B847013073
:103AF0002BD164E7B9F1650F40F2DD80D4E9120102
:103B000000220023FCF7C0FF002833D001233146F8
:103B10002846354AB84701303FF451AFDDE90D235F
:103B20009A4202DB2368D8070FD5DDE90923314625
:103B30002846B84701303FF442AF4FF0000804F187
:103B40001A090E9B013B434509DC23689B0700F1E2
:103B50000281E0680F9B9842B8BF184631E7012305
:103B60004A4631462846B84701303FF428AF08F1AD
:103B70000108E6E70D9B002B38DC0123314628467F
:103B8000194AB84701303FF41AAFDDE90D2313435A
:103B900002D12368D907D8D5DDE909233146284663
:103BA000B84701303FF40BAF4FF0000904F11A0A97
:103BB0000D9B5B424B4501DC0E9B94E70123524673
:103BC00031462846B84701303FF4F9AE09F1010902
:103BD000EEE700BFFFFFEF7F5C8100086081000817
:103BE00068810008648100086C8100080E9AA36D4A
:103BF0009A42A8BF1A46002A914637DC4FF0000BC4
:103C000029EAE97904F11A02D4F858A0AAEB0903C9
:103C10005B4533DCDDE90D239A423BDB2368DA07A1
:103C200038D40E9A0D99A2EB0A03A2EB010999452B
:103C3000A8BF9946B9F1000F34DC4FF0000829EA1B
:103C4000E97904F11A0ADDE90D239B1AA3EB0903B4
:103C500043457FF77AAF0123524631462846B8479D
:103C600001303FF4ACAE08F10108ECE713463146F1
:103C700042462846B8470130C0D1A0E6012331466C
:103C800028460B92B84701303FF499AE0B9A0BF1DE
:103C9000010BB9E73146DDE909232846B847013071
:103CA000BFD18CE64B463146284608EB0A02B8479E
:103CB0000130C2D183E60E9A012A01DCDB0737D539
:103CC0000123424631462846B84701303FF477AEDB
:103CD000DDE9092331462846B84701303FF46FAE8D
:103CE000D4E9120100220023FCF7CEFED8B90E9BC6
:103CF00008F10102013B31462846B84701300ED198
:103D00005DE601234A4631462846B84701303FF474
:103D100056AE08F101080E9B013B4345F1DC5346CA
:103D200004F15002E0E64FF0000804F11A09F2E74E
:103D300001234246DFE701234A4631462846B84779
:103D400001303FF43CAE08F10108E3680F995B1ABB
:103D50004345F0DCFDE64FF0000804F11909F4E7F3
:103D60002DE9F047164699468A680B690746934243
:103D7000B8BF1346336091F843200C46DDF820802D
:103D80000AB1013333602368990642BF33680233B6
:103D90003360256815F0060506D104F1190AE368B9
:103DA00032689B1AAB4228DC94F84320131E226829
:103DB00018BF012392062DD44946384604F1430228
:103DC000C047013020D02368E56803F00603042BC8
:103DD00018BF002532684FF00006A36808BFAD1A6F
:103DE000226908BF25EAE5759342C4BF9B1AED1806
:103DF0001A34B5421AD1002008E001235246494640
:103E00003846C047013003D14FF0FF30BDE8F0879E
:103E10000135C4E73020E11881F843005A1C94F8BA
:103E200045102244023382F84310C5E7012322469D
:103E300049463846C0470130E6D00136D9E7000090
:103E40002DE9FF470C46277E9146782F80469A46FB
:103E50000C9904F1430207D8622F0AD8002F00F012
:103E6000D980582F00F0A48004F1420684F84270F3
:103E70003AE0A7F16303152BF6D801A050F823F020
:103E8000D93E0008ED3E0008693E0008693E000882
:103E9000693E0008693E0008ED3E0008693E0008E2
:103EA000693E0008693E0008693E0008FB3F0008C3
:103EB0001D3F0008DD3F0008693E0008693E00081C
:103EC0001D400008693E00081D3F0008693E0008CB
:103ED000693E0008E53F00080B6804F142061A1D20
:103EE0001B680A6084F842300123A4E02568086852
:103EF0002E0600F104030AD505680B60002D03DAD5
:103F00002D236D4284F843300A235E4819E015F0F2
:103F1000400F05680B6018BF2DB2EFE70B682568EE
:103F2000181D0860280601D51D6802E06906FBD54A
:103F30001D886F2F0CBF08230A235248002184F8E4
:103F400043106668002EA8BF2168A660A4BF21F0B8
:103F5000040121600DB9002E4DD01646B5FBF3F1DA
:103F600003FB1157C75D06F8017D2F46BB420D4686
:103F7000F4D9082B0BD12368DF0708D523696168C2
:103F80009942DEBF302306F8013C06F1FF36921B52
:103F900022614B4621464046CDF800A003AAFFF718
:103FA000DFFE01304CD14FF0FF3004B0BDE8F087A8
:103FB000344884F845700E68236856F8045B1F0681
:103FC0000E6014D5D90744BF43F0200323601DB908
:103FD000236823F0200323601023AFE7236843F016
:103FE000200323607823284884F84530E3E75E0601
:103FF00048BFADB2E6E71646BBE70B6826681D1D55
:1040000060690D6035061B6801D5186002E0710615
:10401000FBD51880002316462361BAE70B681A1DEA
:104020000A601E6800213046626802F05FFE08B137
:10403000801B606063682361002384F84330A8E735
:104040003246494640462369D0470130ABD0236809
:104050009B0713D4E068039B9842B8BF1846A4E7B7
:104060000123324649464046D04701309BD00135B6
:10407000E36803995B1AAB42F2DCEBE7002504F13D
:104080001906F5E76E8100087F8100082DE9F04FE1
:1040900087B003938B6817465A1EB2F5AE7F85BF73
:1040A0006FF4AE755B190023029388BF40F25D1375
:1040B0008B464FF000058CBF8B6002930B688046E7
:1040C00043F4F0634BF81C3B0C465E46AA46A946F7
:1040D000CDE904550195A26852B13B681B784E2B7F
:1040E00064D8402B3CD8A3F12B01C8B20E283AD992
:1040F000B9F1000F03D0236823F4807323600AF121
:10410000FF3ABAF1010F00F213815E4500F205811A
:104110000125284607B0BDE8F08FA3F161020D2A02
:10412000E6D801A151F822F067420008F1400008EA
:10413000F1400008F1400008C74200089F42000813
:10414000F1400008F140000875420008F140000805
:10415000F1400008F1400008F14000082D4200083D
:10416000A3F14102DBE70E29C2D801A050F821F0EB
:104170001F420008F14000081F420008B342000837
:10418000F1400008CD41000809420008094200083A
:1041900009420008094200080942000809420008D3
:1041A0000942000809420008094200086E2B09D89C
:1041B000602BB2D8542B77D0592B99D1072D97D19A
:1041C000082529E0742B6FD0792BF6E72168C80504
:1041D0001AD5029B21F08001216009F101091BB170
:1041E000013B01320293A260A368013BA3602369F3
:1041F000013323617B68013B002B7B6040F38480AB
:104200003B6801333B6066E71AEB050F7FF470AF44
:10421000226822F4C072226006F8013BE4E72268BB
:1042200010067FF565AF22F08002F4E7BAF1000FC7
:104230000ED1B9F1000F0ED1226802F4E061B1F5A0
:10424000E06F08D122F4F0624FF0010A2260E3E748
:10425000BAF1020F55D0012D02D0042D7FF448AFE2
:104260000135EDB2D8E7BAF1010F7FF441AF4FF05D
:10427000020AD1E77DB9B9F1000F7FF43CAF2268A3
:1042800002F4E061B1F5E06F7FF439AF22F4F0623F
:1042900001252260C0E7032DE2D0052DDEE7022DC7
:1042A0007FF426AF0325B7E7062D7FF421AF07255E
:1042B000B2E7226891057FF51BAF22F420722260DD
:1042C000CDF80490A8E7226802F4A061B1F5806FF0
:1042D00006D050057FF50CAFB9F1000F3FF40FAFDA
:1042E000910558BF019922F4F06258BFA9EB010172
:1042F00042F4C0724FF0000958BFCDE904162260A5
:104300008AE74FF0030A87E739464046D4F8803100
:10431000984700283FF4DFAEEAE6D4F87C313A460D
:10432000404616F8011D98472369013B2361ECE6DE
:104330006B1E062B25D8022D36D85E457FF6E8AEDB
:10434000D4F87C313A46404616F8011D9847236957
:10435000013B2361F1E70298D4F87C3110F8011D8C
:104360003A460290404698472369013B23610AF18F
:10437000FF3A5FFA8AFABAF1020FECD1033DEDB2CF
:10438000761B2368DA052FD55B0510D55E457FF6D1
:10439000BFAED4F87C313A46404616F8011D984726
:1043A0002369013B2361F1E7AA460296DFE716F88D
:1043B000011C2369652903F1FF3306F1FF352361F1
:1043C0000CD045290AD0D4F87C313A46404698476B
:1043D000236916F8021C013BB51E23613A4640468C
:1043E000D4F87C3198472E46256815F0100559D130
:1043F0003570236803F4C063B3F5806F1CD1019B53
:104400004B45A3EB090224D100225946404600F057
:10441000FFFED4F800C0039B1CF0020F06460F46B7
:104420001B6821D003991A1D0A601B68C3E9006745
:10443000E3680133E3606CE6049B002BE4D005994C
:104440000A232A464046013100F06EFF049B059E78
:10445000C21A04F26F139E4228BF04F5B7763046A5
:10446000114900F09FF8CFE71CF0040F03F1040E90
:1044700003D00399C1F800E0D7E7039AC2F800E03F
:10448000D3F8008002460B46FCF730FB28B1074802
:1044900000F084F8C8F80000CAE730463946FCF757
:1044A00083FBF7E7002534E69081000808860008C2
:1044B00070B50E46054618B183690BB901F08CFF43
:1044C000AB69AC6813B9284601F086FF2C4B9C42BF
:1044D00020D16C68636EDB0705D4A389980502D4EC
:1044E000A06D02F082FBA38919071DD52369DBB1FA
:1044F000013EA36816F8011F013BA36039BB002BE6
:1045000038DA22460A21284600F010FF013011D087
:104510000A2511E01B4B9C4201D1AC68DAE71A4B2B
:104520009C4208BFEC68D5E72146284600F050FFC2
:104530000028DDD04FF0FF35636EDA0705D4A3897C
:104540009B0502D4A06D02F051FB284670BD002BE4
:1045500004DAA2699A4206DC0A2904D023685A1CAC
:1045600022601970C5E72246284600F0DFFE0130C0
:10457000BFD1DFE70A2523685A1C22601D70DBE7E4
:10458000A0830008C083000880830008024B014616
:104590001868FFF78DBF00BF10000020004870476B
:1045A0000000C07F0EB46FF0004100B59CB01DABA1
:1045B00002900690079104910848094953F8042B8A
:1045C0000591006802A9019303F066F90022029B9D
:1045D0001A701CB05DF804EB03B0704710000020A7
:1045E0000802FFFF2DE9F0410F46904602F0FCFE65
:1045F00004460D46B8F1000F11D0C7F30A53C3F1BA
:104600006B03002B0BDD00241B0503F17F5505F523
:10461000401522462B46FBF7CFFF04460D462046A9
:104620002946BDE8F08100002DE9F04F9B460023AC
:10463000A1B01C93A14B82461F680E4638461792C4
:10464000FBF7F6FD4FF0000804464FF000091B96FB
:104650001B9B1A782B2A4CD03AD80D2A33D8082A1B
:1046600033D8002A3DD000230C931B9D2B78302B90
:1046700040F0AF806B7803F0DF03582B6CD10C9BBC
:10468000504601931CAB00938D4ACDF808B01DAB8A
:104690001BA901F0A7FF10F00706044605D0062E5F
:1046A00029D1002301351B950C93179B002B40F05B
:1046B00096850C9BD3B1424609F10043104619463A
:1046C00021B0BDE8F08F202ACDD101331B93BFE785
:1046D0002D2AC8D101220C925A1C1B925B78002B08
:1046E000C3D1179B1B96002B40F0778542464B4663
:1046F000E4E70022EFE71C9A3AB135211EA802F048
:1047000077FF50461C9902F03FFB013E052E07D86B
:10471000DFE806F00E0B181D0E034FF00009C84627
:104720002107C2D549F00049BFE7DDE91E89F7E757
:104730001D9ADDE91E8302F2334223F4801343EA1B
:104740000259EDE74FF00008DFF87891E8E76FF0E5
:1047500000494FF0FF38E3E71B9B5A1C1B925B7824
:10476000302BF9D0002BA0D0012307931B9B0A22EA
:10477000089300239B46CDE905331B980578A5F1E6
:104780003003D9B2092926D92246394603F0DDF98A
:10479000002832D000202B465C4602460490652B50
:1047A00001D0452B13D11CB9079B034399D000249A
:1047B0001B9E731C1B9373782B2B78D02D2B7BD0D7
:1047C0000027A3F13001092940F282801B960025C1
:1047D0009EE00023C9E7BBF1080FD5BF06990599F4
:1047E00002FB013302FB013300F10100D4BF069349
:1047F00005930BF1010B1B90BFE71B9B1A191B9232
:104800001B5DBBF1000F36D05C460490A3F1300273
:10481000092A12D90122C2E71B9B01305A1C1B92A4
:104820005B78302BF8D0A3F13102082A00F2DC8447
:104830000490002004461B9A0892303B00F10102CC
:1048400013D0049905191144049122460A21AA4261
:1048500013D12218082A04F1010404441BDC0A22A3
:10486000069902FB0133069300221B9B1046591C3C
:104870001B915B78CAE75846D3E7082A04DC069FF9
:104880004F4306970132E2E7571C102FDEBF059F0A
:104890004F430597F6E7102CDFBF0A22059902FB6C
:1048A00001330593E0E70023012204937CE700270E
:1048B000B31C1B93B37884E70127F9E74C84000805
:1048C000988100080000F07F1B9B591C1B915B78AE
:1048D000302BF9D0A3F1310108293FF678AF4FF022
:1048E0000A0EA3F1300C1B9B09931B9B591C1B91B7
:1048F0005B78A3F13005092D35D9099D491B08299D
:1049000044F61F6502DC6545A8BF654607B16D42E8
:10491000002C4CD1079901437FF4C7AE002A7FF4E5
:10492000E0AE692B26D023DC492B23D04E2B7FF41D
:10493000D8AE9C491BA802F0A3F800283FF4D1AEE2
:104940001B9B1B78282B2CD197491EAA1BA802F071
:10495000ABF8052825D11F9BDDF8788043F0FF498F
:1049600049F4E009A1E60EFB0C3CACF1300CBCE7CD
:104970006E2BDCE78D491BA802F082F800283FF47B
:10498000B0AE1B9B8A49013B1BA81B9302F078F831
:1049900010B91B9B01331B934FF00008DFF82092E6
:1049A00083E6844803F078F8804689467DE6049BD8
:1049B000BBF1000F08BFA346EB1A102C0698264641
:1049C0000793A8BF1026FBF77DFD092C804689467A
:1049D00013DD794B03EBC60353E91223FBF7ECFD20
:1049E000804605988946FBF76DFD02460B4640461A
:1049F0004946FBF72BFC804689460F2C36DC079B8B
:104A0000002B3FF452AE22DD162B09DC6A4C4246E5
:104A100004EBC3044B46D4E90001FBF7CDFDC3E72B
:104A2000079AC4F12503934220DB634DC4F10F04C0
:104A300005EBC4014246D1E900014B46FBF7BCFD42
:104A4000079B1C1B05EBC405D5E90023E5E7079B85
:104A500016330BDB049B584A5D1B02EBC505404631
:104A6000D5E900234946FBF7D1FE9DE7079BA61B2E
:104A70001E44002E71DD16F00F030AD04E49424647
:104A800001EBC301D1E900014B46FBF795FD8046E0
:104A9000894636F00F0650D0B6F59A7F27DD4FF0E5
:104AA000000BCDF810B0CDF820B0CDF818B022230F
:104AB0004FF00008DFF80891CAF80030089B002B7F
:104AC0003FF4F3AD50461C9902F05EF9504606994A
:104AD00002F05AF95046049902F056F950460899E6
:104AE00002F052F95946504602F04EF9DDE5002336
:104AF000404649461F463611012E21DC0BB1804647
:104B000089462E4BA9F1547903EBC7074246D7E9F2
:104B100000014B46FBF750FD294B0A460B40294943
:104B200080468B42BBD8A1F580118B4286BF4FF0E7
:104B3000FF38DFF8949002F15479002305937EE06A
:104B4000F20707D51D4B03EBC703D3E90023FBF79F
:104B500033FD012301377610CEE7EED0764216F012
:104B60000F020AD0144B404603EBC2034946D3E977
:104B70000023FBF74BFE804689463611DDD01F2E01
:104B800024DD4FF0000BCDF810B0CDF820B0CDF8FB
:104B900018B022234FF000084FF00009CAF8003087
:104BA0008CE700BF69810008AC81000861810008C2
:104BB000EC82000808860008E8840008C084000829
:104BC0000000F07F0000A07CFFFFEF7F16F01003D5
:104BD00018BF6A234046059349460023B24FF207A7
:104BE00004D5D7E90023FBF7E7FC0123761007F192
:104BF0000807F4D10BB180468946059BBBB1C9F3C8
:104C00000A53C3F16B03002B494610DD1F2B40F301
:104C10002B81342BD8BF4FF0FF324FF00008CFBFAD
:104C20004FF05C79203B02FA03F303EA010900220A
:104C3000002340464946FBF727FF0028A1D1069BE9
:104C40005A46009350462346089902F009F9089005
:104C500000283FF424AF049B4FF0000B5D1B079B23
:104C6000CDF810B0002BB4BF2B4600230E93079B4A
:104C700023EAE3731693089B5046596802F044F800
:104C8000069000283FF413AF089B0C301A6903F11B
:104C90000C0102329200FEF783FD1EAB01931DABA7
:104CA000009342464B465046CDE90A8902F016FC75
:104CB0001C9000283FF4FBAE0121504602F068F939
:104CC0000346049000283FF4F2AE1D9D1E9A002D6D
:104CD000ABBF0E9B169BEE185C1B059BA8BF169CDA
:104CE000A5EB03051544714B05F1FF35B8BF0E9ECA
:104CF0009D42C2F1360280F2C9805B1B1F2B4FF030
:104D00000107A2EB030200F3B680002507FA03F3C4
:104D10000F93B718059BBE4214441C443346A8BFEA
:104D20003B46A342A8BF2346002BC2BFFF1AE41A8A
:104D3000F61A0E9B002B17DD1A465046049902F016
:104D4000E1F9049000283FF4B2AE01461C9A5046A7
:104D500002F034F9099000283FF4A9AE50461C999E
:104D600002F012F8099B1C93002F00F39380079B1D
:104D7000002B08DD5046169A069902F0C3F90690FA
:104D800000283FF494AE002C08DD224650460699D8
:104D900002F012FA069000283FF489AE002E08DDDA
:104DA00032465046049902F007FA049000283FF476
:104DB0007EAE5046069A1C9902F086FA8346002879
:104DC0003FF475AE0024C3680499C4600D9302F0EB
:104DD0005FFAA04270DA0D9B53EA080340F0968018
:104DE000C9F31303002B40F0918029F000431B0D01
:104DF0001B05B3F1D66F40F28980DBF8143023B97C
:104E0000DBF81030012B40F38180594601225046D7
:104E100002F0D2F90499834602F03AFA002875DDCF
:104E200005994B46224A002900F0918002EA0901C7
:104E3000B1F1D66F00F38B80B1F15C7F7FF7A9AE43
:104E400000231C4A4046CDE914324946DDE91423CB
:104E5000FBF7B2FB0B46034308BF2223804689467B
:104E600008BFCAF800302DE64FF0FF3202FA03F314
:104E700003EA0808DBE6C5F17F4505F57F0505F582
:104E80007B45E23507FA05F50F9742E70123002538
:104E90000F933EE73A4650461C9902F08DF91C905C
:104EA00000287FF464AF02E6C081000802FCFFFF27
:104EB0000000F07F00005039CDF8249066D10D9AA3
:104EC000C9F313035AB39C4A93422CD1059B404625
:104ED00003B34B46994A4FF0FF311A40B2F1D46FF9
:104EE0001BD8120DC2F16B0301FA03F398421AD1D9
:104EF000934B099A9A4202D101303FF4D8AD4FF05A
:104F000000088E4B099A1A4002F58019059B002B68
:104F100096D1D7E54FF0FF33E8E70B46E6E753EAD3
:104F200008033FF47DAFE5B1099B1D42EED00D9B18
:104F300040464946059AC3B1FFF754FB02460B466B
:104F4000DDE90A01FBF782F980468946DEE7134076
:104F5000A3F580136FEA13594FF0FF386FEA095930
:104F6000D4E70F9B13EA080FE0E7FFF73BFB02468D
:104F70000B46DDE90A01FBF767F9002200238046B2
:104F80008946FBF781FD0028C0D002E65846049907
:104F900002F000FB00224FF0804306460F46FBF76D
:104FA00087FD002875D00D9B002B47D00026654F4C
:104FB000644D099B23F000431B0D1B050F930F9AB3
:104FC000614B9A4240F0C880DDE90A23CDE9142301
:104FD000099B4046A3F15479494602F005FA02467E
:104FE0000B4630463946FBF7E7FA42464B46FBF79D
:104FF0002DF90B465149554A1940914280465ED9D8
:105000000B9B02F15472934203D10A9B01333FF48C
:105010004EAD4FF0FF38DFF8289150461C9901F053
:10502000B3FE5046069901F0AFFE5046049901F0D8
:10503000ABFE5946504601F0A7FE1CE6B8F1000F42
:1050400019D1099BC3F31303E3B900223046394653
:105050003C4BFBF723FDC8B90022304639463C4B98
:10506000FBF7AAFA04460D4605F10043189419937C
:10507000DDE918679DE7B8F1010F03D1099B002B0B
:105080003FF487AD00260024324F91E70D9C304D50
:10509000EAE72F4B002230463946FBF78DFA0D9B8D
:1050A00004460D4633B901F1004310901193DDE938
:1050B00010677EE702460B46CDE91023F7E703F1C0
:1050C0005479059B002BA8D129F000430F9A1B0DA2
:1050D0001B059A42A1D120462946FBF7B5FDFBF7F7
:1050E0003DFA02460B4620462946FBF7ADF80D9ADD
:1050F000C9F3130343EA0803134304460D4666D07D
:1051000009A3D3E90023FBF7C9FC00287FF4DAAC3C
:1051100007A3D3E9002320462946FBF7DDFC00283E
:105120003FF47BAFCEE400BF9535A094FFFFDF3F97
:1051300035E5AF350000E03FFFFF0F000000F07FD6
:10514000FFFFEF7F0000F03F0000E07FFFFF9F7C4C
:105150000000E03F0000F0BF059B13B30F9BB3F1CD
:10516000D46F1ED826A3D3E9002320462946FBF797
:105170009FFC90B129462046FBF7F6FC012838BF7A
:105180000120FBF79FF90D9B04460D46D3B901F1B1
:10519000004312901393DDE912670F9A07F1D6636B
:1051A0009F1ADDE90A0102F01FF902460B4630465C
:1051B0003946FBF701FADDE90A23FBF747F8804699
:1051C00089467EE702460B46CDE91223E3E70EA3AC
:1051D000D3E90023FBF762FCA1E700230C931B9BA0
:1051E000179A1360FFF765BA652B3FF45CAB452B4C
:1051F0003FF459AB0122FFF78DBB00BFAFF3008036
:105200000000C0FFFFFFDF419535A094FFFFCF3FB7
:10521000014BFFF709BA00BF78000020012B2DE9F0
:10522000F047864601D0242B06D9FEF78FFA1623C5
:1052300003600020BDE8F0878C463A4E60461CF8BB
:10524000014BA55D15F00805F8D12D2C33D14FF099
:1052500001089CF8004000F1020C002B5DD0102BDF
:105260000CD1302C0AD19CF8000000F0DF00582847
:105270004ED110239CF801400CF1020C002508F1DE
:105280000047013FB7FBF3F9284603FB197AA4F165
:105290003006092E18D83446A34224DD002D1FDB2A
:1052A00081451DD301D1A2451ADB012500FB034036
:1052B0001CF8014BEBE72B2C08BF9CF80040A846DC
:1052C00008BF00F1020CC8E7A4F14106192E01D86D
:1052D000373CE1E7A4F16106192E04D8573CDBE71F
:1052E0004FF0FF35E4E7002D08DA22233846CEF8E8
:1052F0000030002A9ED00CF1FF3107E0B8F1000F1A
:1053000000D04042002A95D0002DF4D1116091E7E1
:105310003024002BB2D10823B0E7302CA3D00A23CD
:10532000ACE700BFE9810008FFF778BFF8B50E468B
:105330001446054618B183690BB901F04DF8214BAD
:105340009C422BD16C68A369A360A3891A072FD54F
:1053500023696BB323692068F6B2C01A63693746C4
:10536000834204DC2146284600F0A2FF30BBA3683C
:105370000130013BA36023685A1C22601E706369E0
:10538000834204D0A389DB0706D50A2E04D1214627
:10539000284600F08DFF88B93846F8BD0A4B9C427C
:1053A00001D1AC68CFE7094B9C4208BFEC68CAE763
:1053B0002146284600F00CF80028CBD04FF0FF37EC
:1053C000EAE700BFA0830008C083000880830008CC
:1053D000324B70B51D6806460C4625B1AB6913B952
:1053E000284600F0F9FF2E4B9C420FD16C68A38930
:1053F000B4F90C2019072CD4DD0611D4092333602D
:1054000042F040034FF0FF30A3813EE0254B9C4229
:1054100001D1AC68EBE7244B9C4208BFEC68E6E79F
:10542000580712D5616B41B104F14403994202D08F
:10543000304602F02FF900236363A38923F024038D
:10544000A3810023636023692360A38943F00803D9
:10545000A38123694BB9A38903F42073B3F5007FBB
:1054600003D02146304601F0E7FBA089B4F90C20B7
:1054700010F001030AD00023A36063695B42A361BB
:10548000236943B910F08000BAD170BD810758BFBD
:105490006369A360F4E70020F7E700BF1000002075
:1054A000A0830008C0830008808300082DE9F74F1F
:1054B00003690C690746A342C0F28380013C00F1F6
:1054C000140501F1140805EB8403019358F8243006
:1054D00055F8242001339A42B2FBF3F64FEA840BCD
:1054E00008EB840932D34FF0000E4046AC46F2463A
:1054F00050F8042B93B206FB03E3120C4FEA134E51
:1055000006FB02E29BB2AAEB0303DCF800A04FEA21
:10551000124E1FFA8AFA53441FFA82FADCF800206E
:105520008145CAEB124202EB23429BB243EA02439B
:105530004FEA224A4CF8043BDAD255F80B302BB92B
:10554000019B043B9D421A462FD33C61384601F033
:105550009FFE002825DB28464FF0000C013658F846
:10556000041BD0F800E08BB2ACEB03031FFA8EF201
:1055700013440A0CC2EB1E4202EB23429BB243EAE5
:105580000243C1454FEA224C40F8043BE7D255F8AC
:10559000242005EB840322B9043B9D421A460AD31A
:1055A0003C61304603B0BDE8F08F1268043B002A2E
:1055B000CBD1013CC6E71268043B002AF0D1013C84
:1055C000EBE70020EEE700002DE9F04F16461F46FE
:1055D000446A99B00546CDE90467DDF8948074B952
:1055E000102001F069FB0246686220B9EA21AE4B47
:1055F000AE4802F0DBFAC0E901440460C4606B6AA3
:10560000196851B15A68012393404A608B6028465B
:1056100001F0BAFB00226B6A1A603B1EAFBF002389
:10562000012223F000430593A8BFC8F80030DDF83D
:1056300014909F4BB8BFC8F8002033EA090319D172
:1056400042F20F73249A1360C9F31303334300F03B
:105650008085269B53B9974B22E0974B08930833DC
:10566000269A1360089819B0BDE8F08F914B089303
:105670000333F5E7DDE90434CDE90C34DDE90C0151
:1056800000220023FBF700FA804658B10123249A38
:105690001360269B002B00F0598588481860431E34
:1056A0000893DFE716AB019317AB00932846DDE9BB
:1056B0000C2301F013FFC9F30A548246002C7ED05C
:1056C000DDE90C010D9BA4F2FF34C3F3130343F097
:1056D0007F5141F44011CDF84C800022784BFAF70D
:1056E000B3FD6BA3D3E90023FAF766FF6AA3D3E9FE
:1056F0000023FAF7ABFD064620460F46FAF7F2FE06
:1057000067A3D3E90023FAF757FF02460B4630465A
:105710003946FAF79BFD06460F46FBF7FDF90022D6
:105720008146002330463946FBF7B8F948B1484670
:10573000FAF7D8FE32463B46FBF7A6F908B909F15D
:10574000FF39B9F1160F57D8DDE90C015D4B03EBBA
:10575000C903D3E90023FBF7A1F900284ED00023A9
:1057600009F1FF390F93169B1C1B631E099349BF58
:10577000C4F1010300230693002354BF0693099349
:10578000B9F1000F3CDB099BCDF838904B440993ED
:1057900000230A93229B092B6CD8052BC4BF043B22
:1057A0002293229BC8BF0024A3F10203D8BF012487
:1057B000032B00F28B80DFE803F02D4F4D5BDDE91A
:1057C00016431C4404F23243202BC3BFC3F14003F1
:1057D00004F2124009FA03F3C3F12003C6BF26FA0C
:1057E00000F0184306FA03F0FAF76CFE0123A1F16A
:1057F000F871013C139370E70123B3E70F90B2E710
:10580000069BA3EB09030693C9F100030A93002347
:105810000E93BFE700230B93239B002B59DC4FF023
:10582000010B5B46CDF808B0CDF88CB00022686A59
:105830004260042202F114069E4241684FD9284674
:1058400001F062FA089000284DD102464FF4D5715C
:105850001D4BCDE60123DEE700230B93239B09EBD1
:10586000030B0BF10103012B0293B8BF0123DDE70A
:105870000123F2E7012400230B9422934FF0FF3B16
:1058800000221223CDF808B02392CFE7AFF30080B7
:1058900061436F63A787D23FB3C8608B288AC63F36
:1058A000FB799F501344D33FF68200080D83000814
:1058B0000000F07FF2820008E98200086D81000894
:1058C0000000F83FE88400086C83000801230B9374
:1058D000D4E7DDF88CB05B46CDF808B0A6E701311F
:1058E00041605200A6E76B6A089A1A60029B0E2B71
:1058F00000F2A880002C00F0A580B9F1000F34DD83
:105900009A4A09F00F0302EBC30319F4807FD3E92D
:105910000034CDE910344FEA291416D0DDE90C012A
:10592000934B0327D3E90823FAF770FFCDE904016D
:1059300004F00F048E4E54B9DDE91023DDE90401B3
:10594000FAF764FFCDE9040129E00227F2E7E10755
:1059500008D5DDE91001D6E90023FAF72DFECDE9DF
:105960001001013764100836E5E700F0A580DDE995
:105970000C01C9F100047D4B04F00F0203EBC203DC
:10598000D3E90023FAF718FE02270023CDE904012A
:10599000774E2411002C40F08480002BD2D10F9B35
:1059A000002B00F08B80DDE90434CDE91034DDE913
:1059B000100100226F4BFBF771F800287ED0029B8C
:1059C000002B7BD0BBF1000F38DDDDE91001002298
:1059D000694BFAF7F1FD5C46CDE9040109F1FF38A6
:1059E00001373846FAF77EFDDDE90423FAF7E4FDD6
:1059F0000022624BFAF72AFCA1F15076CDE91001A2
:105A00001196002C5DD1DDE9040100225C4BFAF710
:105A10001BFC02460B46CDE904233346109AFBF7E4
:105A20005BF8002840F09E82DDE90401109A06F13F
:105A30000043FBF733F8002840F09282DDE90C3494
:105A4000CDE90434179B002BC0F25381B9F10E0F3E
:105A500000F34F81454B03EBC903D3E90034CDE993
:105A60000634239B002B80F2DB80029B002B00F38B
:105A7000D78040F07482DDE906010022404BFAF73E
:105A80009BFDDDE90423FBF71DF8029C2646002858
:105A900040F04A823123089F09F1010907F8013BD0
:105AA00046E2E20705D5D6E90023FAF785FD012392
:105AB0000137641008366DE7022770E7C846029C7C
:105AC0008FE70899294B214412910B9903EBC403EA
:105AD000DDE9106753E90223002955D00020294948
